:100000000C94EE000C940B010C940B010C940B015E
:100010000C940B010C940B010C940B010C940B0130
:100020000C940B010C940B010C94BF070C94FD076E
:100030000C940B010C940B010C940B010C940B0110
:100040000C940B010C940B010C940B010C940B0100
:100050000C940B010C940B010C940B010C940B01F0
:100060000C940B010C94C2060C9497060C940B0193
:100070000C940B010C940B010C940B010C940B01D0
:100080000C940B010C940B010C940B010C940B01C0
:100090000C940B010C940B010C940B010C940B01B0
:1000A0000C940B010C940B010C940B01000100004B
:1000B000E0001200020000F20043000300003501DE
:1000C0000401030904390144020309047F014C03BC
:1000D000030904CD010C0001C112018036018136F3
:1000E0001201000202000010EB03FE2100010102D8
:1000F000030109024300020100C0320904000001AB
:10010000020201000524001001052401010104245C
:1001100002060524060001070582031000400904B9
:100120000100020A00000007050302400000070565
:10013000840240000004030904440349006E006780
:10014000002E002000490067006F0072002000436D
:1001500000650073006B006F00200043006F006DAE
:1001600000700061006E0079002C00200053006CCC
:10017000006F00760061006B006900610000004CB8
:10018000034100560052003300300039003A005558
:100190000053004200200074006F00200055004111
:1001A00000520054002000700072006F0074006F55
:1001B0000063006F006C00200063006F006E00762B
:1001C000006500720074006500720000000C0330CE
:1001D00000300038003100350000000011241FBE3F
:1001E000CFEFDAE0DEBFCDBF12E0A0E0B1E0E6E5A0
:1001F000F8E102C005900D92A630B107D9F722E0D0
:10020000A6E0B2E001C01D92A637B207E1F70E9456
:10021000D6050C94290C0C940000CF93DF93EAE7E9
:10022000F0E090819F77908390819F7B90838830CE
:1002300009F475C078F48430D1F130F48823F1F0FA
:10024000813009F0F9C025C0863009F44CC008F0AF
:1002500058C03BC08B3009F489C038F4893009F4A8
:1002600069C08A3009F0E8C073C08D3009F49AC0C3
:1002700008F48AC0843109F0DFC0A2C0ECE7F0E0E6
:100280008081807E8083EBE7F0E080818F7D8083BA
:10029000A4C0ECE7F0E08081817E80838081816072
:1002A0008083EBE7F0E080818F7D808396C0ECE770
:1002B000F0E08081847E8083808184608083EBE7AE
:1002C000F0E080818F7D808388C0ECE7F0E0808162
:1002D000856080838081857E8083EBE7F0E080818C
:1002E0008F7D80837AC0ECE7F0E080818660808338
:1002F0008081867E8083EBE7F0E080818F7D808344
:100300006CC0ECE7F0E08081876080838081877E2D
:100310008083EBE7F0E080818F7D80835EC0ECE737
:10032000F0E08081807E8083EBE7F0E08081806276
:10033000808353C0ECE7F0E08081817E8083808100
:1003400081608083EBE7F0E080818062808345C03C
:10035000ECE7F0E08081827E808380818260808310
:10036000EBE7F0E080818062808337C0ECE7F0E06B
:100370008081837E8083808183608083EBE7F0E0EF
:1003800080818062808329C0ECE7F0E08081847EF8
:100390008083808184608083EBE7F0E080818062ED
:1003A00080831BC0ECE7F0E08081857E80838081C4
:1003B00085608083EBE7F0E08081806280830DC000
:1003C000ECE7F0E08081877E808380818760808396
:1003D000EBE7F0E0808180628083EAE7F0E08081F3
:1003E00080688083808180648083808186FDFDCFEA
:1003F000109279001092780040E180E090E0DC01FA
:10040000EAE7F0E0C8E7D0E0208120642083208183
:1004100026FDFDCF28813981820F931FA11DB11DBB
:10042000415091F7689413F8B695A79597958795DD
:100430001694D1F79C0102C020E030E0822F932F68
:10044000DF91CF910895ECE7F0E080818F7B80838E
:1004500080818F77808380B38C7F80BB80818F7D0C
:1004600080838081827E8083808182608083ABE70D
:10047000B0E08C9180628C93EAE7F0E08081876045
:10048000808380818F7D80838C9180688C93808134
:1004900080688083808180648083808186FDFDCF39
:1004A0000895CF92DF92EF92FF92CF93DF93EA010C
:1004B000681B790B80E090E00E94AA0A6B017C0126
:1004C000BE0180E090E00E94AA0A9B01AC01C70136
:1004D000B6010E94160A20E030E04FE753E40E9484
:1004E0003C0BE62EF72ED82FC92F20E030E04FE747
:1004F00053E40E94380B181624F4E12CF12CDFE7AA
:10050000C3E42E2D3F2D4D2F5C2F60E070E08FE770
:1005100093E40E94B1090E947E0A862F972FDF91F3
:10052000CF91FF90EF90DF90CF9008951F93CF93DE
:10053000DF9395B1C1E0D0E002C0CC0FDD1F8A95FA
:10054000E2F78C2F8095982395B989E190E00E947D
:10055000BB0580E00E940D01182FD92F85B1C82B53
:10056000C5B98FE090E00E94BB05812F9D2FDF91E0
:10057000CF911F910895EF92FF920F931F93CF9306
:10058000DF93289A299A2A9A8BE291E00E948509A2
:100590008DE790E00E94BB0580E00E9496028C01EE
:1005A00081E00E949602EC0182E00E9496027C01AA
:1005B0008DE491E00E948509B80180E090E00E94FE
:1005C000930988E391E00E948509BE0180E090E0F4
:1005D0000E94930982E491E00E948509B70180E0BE
:1005E00090E00E94930940910801509109016091A7
:1005F000200170912101C8010E9451028C0140919B
:1006000004015091050160911C0170911D01CE0102
:100610000E945102EC014091000150910101609152
:10062000180170911901C7010E9451027C018BE4ED
:1006300091E00E948509B80180E090E00E94930952
:1006400088E391E00E948509BE0180E090E00E946D
:10065000930982E491E00E948509B70180E090E06F
:100660000E94930907391105A0F0C536D10528F07D
:1006700085E591E00E94890624C0E89728F08EE580
:1006800091E00E9489061DC087E691E00E948906DC
:1006900018C0C436D10548F484E6E816F10428F4FD
:1006A0008DE691E00E9489060CC0EC16FD0628F448
:1006B00085E791E00E94890604C08DE791E00E94E1
:1006C0008906DF91CF911F910F91FF90EF900895D0
:1006D000CF93811126C11092200110922101109216
:1006E00022011092230110921C0110921D01109200
:1006F0001E0110921F011092180110921901109200
:100700001A0110921B0184E891E00E948509C8E05B
:1007100080E00E9496024091200150912101609159
:10072000220170912301480F591F611D711D4093D3
:10073000200150932101609322017093230181E0F5
:100740000E94960240911C0150911D0160911E0172
:1007500070911F01480F591F611D711D40931C01AD
:1007600050931D0160931E0170931F0182E00E944F
:100770009602409118015091190160911A017091EF
:100780001B01480F591F611D711D409318015093A3
:10079000190160931A0170931B01C15009F0B8CF81
:1007A0008091200190912101A0912201B09123011B
:1007B000689412F8B695A795979587951694D1F7F2
:1007C0008093200190932101A0932201B0932301F3
:1007D00080911C0190911D01A0911E01B0911F01FB
:1007E000689412F8B695A795979587951694D1F7C2
:1007F00080931C0190931D01A0931E01B0931F01D3
:10080000DB01CA01689412F8B695A795979587956C
:100810001694D1F78093180190931901A0931A01AF
:10082000B0931B0186EA91E00E9485096091200146
:100830007091210180912201909123010E949309DE
:1008400088E391E00E94850960911C0170911D016F
:1008500080911E0190911F010E94930982E491E012
:100860000E948509609118017091190180911A0107
:1008700090911B010E949309809120019091210188
:10088000A0912201B09123014091140150911501D2
:100890006091160170911701841B950BA60BB70B85
:1008A0008093080190930901A0930A01B0930B0172
:1008B00080911C0190911D01A0911E01B0911F011A
:1008C000409110015091110160911201709113013A
:1008D000841B950BA60BB70B809304019093050125
:1008E000A0930601B093070180911801909119011E
:1008F000A0911A01B0911B0140910C0150910D0182
:1009000060910E0170910F01841B950BA60BB70B24
:100910008093000190930101A0930201B093030121
:1009200028C1813009F025C11092140110921501DF
:1009300010921601109217011092100110921101DD
:10094000109212011092130110920C0110920D01DD
:1009500010920E0110920F018CEB91E00E9485091C
:10096000C8E080E00E949602409114015091150168
:100970006091160170911701480F591F611D711D7B
:100980004093140150931501609316017093170161
:1009900081E00E94960240911001509111016091F6
:1009A000120170911301480F591F611D711D409371
:1009B000100150931101609312017093130182E0B2
:1009C0000E94960240910C0150910D0160910E0120
:1009D00070910F01480F591F611D711D40930C014B
:1009E00050930D0160930E0170930F01C15009F0F7
:1009F000B8CF8091140190911501A0911601B0918A
:100A00001701689412F8B695A7959795879516944F
:100A1000D1F78093140190931501A0931601B09320
:100A200017018091100190911101A0911201B091D4
:100A30001301689412F8B695A79597958795169423
:100A4000D1F78093100190931101A0931201B093FC
:100A50001301DB01CA01689412F8B695A795979522
:100A600087951694D1F780930C0190930D01A09374
:100A70000E01B0930F0181EE91E00E948509609113
:100A800014017091150180911601909117010E9437
:100A9000930988E391E00E948509609110017091AB
:100AA000110180911201909113010E94930982E437
:100AB00091E00E94850960910C0170910D01809177
:100AC0000E0190910F010E94930980912001909155
:100AD0002101A0912201B091230140911401509174
:100AE00015016091160170911701841B950BA60BDF
:100AF000B70B8093080190930901A0930A01B0936A
:100B00000B0180911C0190911D01A0911E01B091DB
:100B10001F014091100150911101609112017091DB
:100B20001301841B950BA60BB70B809304019093C4
:100B30000501A0930601B0930701809118019091DF
:100B40001901A0911A01B0911B0140910C01509123
:100B50000D0160910E0170910F01841B950BA60B86
:100B6000B70B8093000190930101A0930201B09311
:100B70000301CF910895009749F00197EFE9FFE055
:100B80003197F1F700C000000097B9F7089585B7D5
:100B9000816085BF85B7826085BF10926E0089E154
:100BA00090E00E94BB050C94001C089580E890E042
:100BB0000FB6F89480936100909361000FBE85BFDB
:100BC0006A98729A539A6E9ACFEFC4B9C5B910BA9F
:100BD0000E9423020E94E90615B88DE790E00E946A
:100BE000BB05C5B98DE790E00E94BB0515B88DE740
:100BF00090E00E94BB05C5B960E875E280E090E036
:100C00000E944B068AEF91E00E94890684EF91E0F2
:100C10000E94BB05629910C082E390E00E94BB0570
:100C200080E00E940D01BC0180E090E00E949309E9
:100C30008EED91E00E9485090E943307882351F3CD
:100C40000E940207EC010E946307C13711F0CB310B
:100C500011F40E94C705DD27C137D10599F01CF4B6
:100C60006B97A1F40FC0C337D10521F0C737D10569
:100C700069F404C081E00E9468030AC080E00E9419
:100C8000680306C0769A0E94C70502C00E94BB0294
:100C90000E944D07BFCF9B01AC01F89460E079E062
:100CA0008DE390E00E94C30BDA01C9010197A1090D
:100CB000B109B695A795979587959093CD008093A8
:100CC000CC0082E08093C80088E98093C90086E068
:100CD0008093CA00109248021092490210920602B4
:100CE0001092070278940895209149022F5F2832CC
:100CF00008F020E0909148022917E1F3E22FF0E09C
:100D0000E65BFD4F80832093490288EB8093C90006
:100D10000895CF93DF93EC018991882329F00E94F5
:100D2000740689918111FBCFDF91CF9108951F92B5
:100D30000F920FB60F9211248F939F93EF93FF930F
:100D40009091490280914802981304C088E98093E9
:100D5000C9000FC0809148028F5F883208F080E0A0
:100D6000E82FF0E0E65BFD4F90819093CE008093FA
:100D70004802FF91EF919F918F910F900FBE0F90BE
:100D80001F9018951F920F920FB60F9211242F9358
:100D90008F939F93EF93FF932091CE008091070252
:100DA0008F5F803408F080E090910602891739F057
:100DB000E82FF0E0E85FFD4F208380930702FF916A
:100DC000EF919F918F912F910F900FBE0F901F90D9
:100DD000189581E08093D70080EA8093D80082E163
:100DE00089BD09B400FEFDCF80E98093D800109240
:100DF000E00010927302109274028CE08093E20083
:100E0000789408953FB7F89480917302811104C0DB
:100E10003FBF2FEF3FEF24C083E08093E900809134
:100E2000E80085FD12C082FD04C00BC082FD04C035
:100E300008C0E8EEF0E09BE69083808185FFF6CF66
:100E400004C03FBF2FEF3FEF0BC02091F100809116
:100E5000E80085FD03C08BE68093E8003FBF30E0EB
:100E6000822F932F08959FB7F8948091730288235F
:100E700089F083E08093E9008091F20081110BC03A
:100E80002091E80022FF07C025FD05C02BE6209336
:100E9000E80001C080E09FBF08958091730288231D
:100EA00089F02FB7F89483E08093E9008091E800FF
:100EB00085FF07C0E8EEF0E09BE69083808185FD2A
:100EC000FCCF2FBF0895CF93DF93909173029923A6
:100ED00009F44DC09FB7F89424E02093E9002091D5
:100EE0007502222349F02091E80025FD03C09FBF31
:100EF0008FEF42C0109275023091E400375E20916E
:100F0000E80025FD25C09FBF9091E400931749F0AC
:100F10009091730291110FC02CC09FBF98819313C1
:100F200005C081E0809375028FEF26C09091730217
:100F3000911108C020C0A9EEB0E044E0E8EEF0E076
:100F4000C4EED0E09FB7F8944C93208125FFE5CF05
:100F50008093F1008091E80085FD03C08AE38093CF
:100F6000E80085E0809372029FBF80E005C08FEFAC
:100F700003C08FEF01C08FEFDF91CF9108951F92D3
:100F80000F920FB60F9211248F939F93EF93FF93BD
:100F9000E1EEF0E08081108283FF11C01092E90041
:100FA00091E09093EB001092EC0092E19093ED00B1
:100FB00098E09093F000109273021092740282FFF6
:100FC00013C080917302882379F080917202882384
:100FD00059F0815080937202811106C084E08093A1
:100FE000E9008AE38093E800FF91EF919F918F9150
:100FF0000F900FBE0F901F9018951F920F920FB673
:101000000F9211240F931F932F933F934F935F934E
:101010006F937F938F939F93AF93BF93CF93DF9300
:10102000EF93FF931092E9008091E80083FF51C194
:10103000E1EFF0E07081408120813081932F80E0EA
:10104000DC01A22B9D0150816081962F80E0852BD1
:10105000A081B08152EF5093E800463009F05CC0A7
:1010600004C081E28093EB003BC1C6E04CEA50E053
:10107000FA01659174912617370719F0495F5F4FA0
:1010800020C0FA013296659174918617970719F07E
:10109000495F5F4F16C0FA01349685919491282FCD
:1010A000392FFA01369644919B2F80E08A2B8F3F8F
:1010B000910519F010F08FEF90E0841728F4482F75
:1010C00003C0C150A9F6CDCFC8EED0E07EEFA1EFAE
:1010D000B0E010E18881982F9570E1F382FD00C1A6
:1010E000642F413108F0612F662309F4F6C0C9016D
:1010F000562FFC010196E491EC935150D1F7862FC5
:10110000815090E00196280F391F461B78834111CA
:10111000E1CF6031F9F2E4C0453061F48EEF8093A5
:10112000E800E8EEF0E0808180FFFDCF20682093AA
:10113000E300D6C04930A1F571115BC02093730262
:1011400010927402109272028EEF8093E80011E008
:1011500086ED90E0C9EED0E0ABEEB0E06CEE70E072
:101160004DEE50E018839C012F5F3F4FFC0104912E
:101170000C93002359F0F9012491FB012083FC0119
:10118000329603962491FA01208301C0C9011F5FA2
:10119000153041F7EAEEF0E08EE180831082A0C0C6
:1011A000483081F4703809F03FC0E8EEF0E080810B
:1011B00080FFFDCF809173028093F1008EEF8093CA
:1011C000E8008EC04132A9F4713AF1F5E8EEF0E0A2
:1011D000808180FFFDCFE4E2F1E0A1EFB0E08191FA
:1011E0008C9341E0EB32F407D1F78EEF8093E80067
:1011F00077C04032C9F4713209F06BC0E8EEF0E01C
:10120000808182FFFDCFE4E2F1E0A1EFB0E08C91BC
:10121000819351E0EB32F507D1F7E8EEF0E08BEF88
:1012200080838EEF80835CC0423271F4713209F0AA
:1012300050C020937402E8EEF0E0808180FFFDCF83
:101240008EEF8093E8004CC041111AC0E8EEF0E048
:10125000208120FFFDCF723851F4E9EEF0E0808369
:101260008091EB0085FB882780F9108201C080E027
:10127000E1EFF0E0808310828EEF8093E80030C0D1
:10128000413011F0433029F5723019F5232B09F55F
:101290008F779927382F31503430D8F43EEF309380
:1012A000E8008093E900433021F481E28093EB0071
:1012B00017C099E19093EB0021E030E0D90102C022
:1012C000AA0FBB1F8A95E2F7EAEEF0E0A083108236
:1012D00007C081E28093EB0003C078834111FACE0E
:1012E000FF91EF91DF91CF91BF91AF919F918F913E
:1012F0007F916F915F914F913F912F911F910F912E
:101300000F900FBE0F901F901895CF93DF93EC01B5
:101310008991882329F00E94630789918111FBCF6D
:10132000DF91CF910895CF93DF93CDB7DEB7649768
:101330000FB6F894DEBF0FBECDBF2AE030E0AE019D
:101340004F5F5F4F0E94E50BCE0101960E94850919
:1013500064960FB6F894DEBF0FBECDBFDF91CF917C
:1013600008955058BB27AA270ED048C139D130F074
:101370003ED120F031F49F3F11F41EF42EC10EF443
:10138000E095E7FB24C1E92F4AD180F3BA17620741
:1013900073078407950718F071F49EF562C10EF487
:1013A000E0950B2EBA2FA02D0B01B90190010C0175
:1013B000CA01A0011124FF27591B99F0593F50F48D
:1013C000503E68F11A16F040A22F232F342F4427E5
:1013D000585FF3CF469537952795A795F0405395DD
:1013E000C9F77EF41F16BA0B620B730B840BBAF0AD
:1013F0009150A1F0FF0FBB1F661F771F881FC2F718
:101400000EC0BA0F621F731F841F48F4879577952B
:101410006795B795F7959E3F08F0B3CF9395880FE2
:1014200008F09927EE0F9795879508950CD0E6C0A0
:10143000DED040F0D5D030F021F45F3F19F0C7C0C6
:10144000511110C1CAC0EBD098F39923C9F35523A9
:10145000B1F3951B550BBB27AA27621773078407A7
:1014600038F09F5F5F4F220F331F441FAA1FA9F35D
:1014700033D00E2E3AF0E0E830D091505040E6954F
:10148000001CCAF729D0FE2F27D0660F771F881FB0
:10149000BB1F261737074807AB07B0E809F0BB0B9F
:1014A000802DBF01FF2793585F4F2AF09E3F5105C3
:1014B00068F08DC0D7C05F3FECF3983EDCF38695B3
:1014C00077956795B795F7959F5FC9F7880F911D39
:1014D0009695879597F90895E1E0660F771F881F25
:1014E000BB1F621773078407BA0720F0621B730BD8
:1014F000840BBA0BEE1F88F7E095089598D088F01A
:101500009F5790F0B92F9927B751A0F0D1F0660FEF
:10151000771F881F991F1AF0BA95C9F712C0B1300A
:1015200081F09FD0B1E008959CC0672F782F882765
:10153000B85F39F0B93FCCF3869577956795B39549
:10154000D9F73EF490958095709561957F4F8F4FB8
:101550009F4F0895E89409C097FB3EF490958095BD
:10156000709561957F4F8F4F9F4F9923A9F0F92F69
:1015700096E9BB279395F695879577956795B795E7
:10158000F111F8CFFAF4BB0F11F460FF1BC06F5FCD
:101590007F4F8F4F9F4F16C0882311F096E911C0DF
:1015A000772321F09EE8872F762F05C0662371F000
:1015B00096E8862F70E060E02AF09A95660F771F14
:1015C000881FDAF7880F9695879597F9089597F908
:1015D0009F6780E870E060E008959FEF80EC0895D9
:1015E00000240A9416161706180609060895002402
:1015F0000A9412161306140605060895092E03947C
:10160000000C11F4882352F0BB0F40F4BF2B11F4EF
:1016100060FF04C06F5F7F4F8F4F9F4F089557FD4E
:101620009058440F551F59F05F3F71F04795880F50
:1016300097FB991F61F09F3F79F0879508951216E7
:1016400013061406551FF2CF4695F1DF08C0161693
:1016500017061806991FF1CF869571056105089444
:101660000895E894BB2766277727CB0197F908955B
:1016700066D008F48FEF08950BD0C0CFB1DF28F00B
:10168000B6DF18F0952309F0A2CFA7CF1124EACF37
:10169000C6DFA0F3959FD1F3950F50E0551F629FD1
:1016A000F001729FBB27F00DB11D639FAA27F00DBB
:1016B000B11DAA1F649F6627B00DA11D661F829FE2
:1016C0002227B00DA11D621F739FB00DA11D621FC7
:1016D000839FA00D611D221F749F3327A00D611DE4
:1016E000231F849F600D211D822F762F6A2F1124C6
:1016F0009F5750408AF0E1F088234AF0EE0FFF1F19
:10170000BB1F661F771F881F91505040A9F79E3F4F
:10171000510570F05CCFA6CF5F3FECF3983EDCF351
:10172000869577956795B795F795E7959F5FC1F78C
:10173000FE2B880F911D9695879597F90895990F1F
:101740000008550FAA0BE0E8FEEF16161706E8078B
:10175000F907C0F012161306E407F50798F0621BAC
:10176000730B840B950B39F40A2661F0232B242B81
:10177000252B21F408950A2609F4A140A6958FEFA0
:10178000811D811D0895A1E21A2EAA1BBB1BFD011C
:101790000DC0AA1FBB1FEE1FFF1FA217B307E40750
:1017A000F50720F0A21BB30BE40BF50B661F771FA8
:1017B000881F991F1A9469F7609570958095909588
:1017C0009B01AC01BD01CF010895FA01CF93FF93B6
:1017D000EF93223044F1253234F5C22FE894CA3019
:1017E00049F497FB3EF490958095709561957F4FF5
:1017F0008F4F9F4F2C2F332744275527FF93EF936D
:101800000E94C30BEF91FF91605D6A330CF0695D3C
:101810006193B901CA01605070408040904051F717
:1018200016F4CDE2C19310828F919F91CF910C94C9
:10183000190CDC01FC01672F71917723E1F73297D6
:1018400004C07C916D9370836291AE17BF07C8F39B
:061850000895F894FFCF9B
:101856008D00000077000000F1000000D0020000BB
:101866000203000044020000510300008003000050
:101876000303000000E100000000080D0A0D0A4DF8
:10188600657373756E673A000D0A475245454E3AC1
:1018960009000D0A424C55453A09000D0A0D0A5237
:1018A60045443A09000D0A59656C6C6F77000D0ABC
:1018B6004F72616E6765000D0A526564000D0A423B
:1018C600726F776E000D0A477265656E000D0A42EB
:1018D6006C7565000D0A576569DF6162676C65693D
:1018E6006368207374617274657420696E20337343
:1018F600656B200D0A000D0A576569DF6162676C2A
:10190600656963680D0A5245443A09000D0A536336
:10191600687761727A6162676C656963682073745F
:10192600617274657420696E203373656B200D0ACD
:10193600000D0A5363687761727A6162676C656944
:1019460063680D0A5245443A09000D0A696E6974C6
:0619560020646F6E6500C5
:00000001FF
